{
  "_format": "hh-sol-artifact-1",
  "contractName": "BankAccount",
  "sourceName": "contracts/BankAccount.sol",
  "abi": [
    {
      "anonymous": false,
      "inputs": [
        {
          "indexed": false,
          "internalType": "address[]",
          "name": "owners",
          "type": "address[]"
        },
        {
          "indexed": true,
          "internalType": "uint256",
          "name": "id",
          "type": "uint256"
        },
        {
          "indexed": false,
          "internalType": "uint256",
          "name": "timestamp",
          "type": "uint256"
        }
      ],
      "name": "AccountCreated",
      "type": "event"
    },
    {
      "anonymous": false,
      "inputs": [
        {
          "indexed": true,
          "internalType": "address",
          "name": "user",
          "type": "address"
        },
        {
          "indexed": true,
          "internalType": "uint256",
          "name": "accountId",
          "type": "uint256"
        },
        {
          "indexed": false,
          "internalType": "uint256",
          "name": "value",
          "type": "uint256"
        },
        {
          "indexed": false,
          "internalType": "uint256",
          "name": "timestamp",
          "type": "uint256"
        }
      ],
      "name": "Deposit",
      "type": "event"
    },
    {
      "anonymous": false,
      "inputs": [
        {
          "indexed": true,
          "internalType": "uint256",
          "name": "withdrawId",
          "type": "uint256"
        },
        {
          "indexed": false,
          "internalType": "uint256",
          "name": "timestamp",
          "type": "uint256"
        }
      ],
      "name": "Withdraw",
      "type": "event"
    },
    {
      "anonymous": false,
      "inputs": [
        {
          "indexed": true,
          "internalType": "address",
          "name": "user",
          "type": "address"
        },
        {
          "indexed": true,
          "internalType": "uint256",
          "name": "accountId",
          "type": "uint256"
        },
        {
          "indexed": true,
          "internalType": "uint256",
          "name": "withdrawId",
          "type": "uint256"
        },
        {
          "indexed": false,
          "internalType": "uint256",
          "name": "amount",
          "type": "uint256"
        },
        {
          "indexed": false,
          "internalType": "uint256",
          "name": "timestamp",
          "type": "uint256"
        }
      ],
      "name": "WithdrawRequested",
      "type": "event"
    },
    {
      "inputs": [
        {
          "internalType": "uint256",
          "name": "accountId",
          "type": "uint256"
        },
        {
          "internalType": "uint256",
          "name": "withdrawId",
          "type": "uint256"
        }
      ],
      "name": "approveWithdrawal",
      "outputs": [],
      "stateMutability": "nonpayable",
      "type": "function"
    },
    {
      "inputs": [
        {
          "internalType": "address[]",
          "name": "otherOwners",
          "type": "address[]"
        }
      ],
      "name": "createAccount",
      "outputs": [],
      "stateMutability": "nonpayable",
      "type": "function"
    },
    {
      "inputs": [
        {
          "internalType": "uint256",
          "name": "accountId",
          "type": "uint256"
        }
      ],
      "name": "deposit",
      "outputs": [],
      "stateMutability": "payable",
      "type": "function"
    },
    {
      "inputs": [],
      "name": "getAccounts",
      "outputs": [
        {
          "internalType": "uint256[]",
          "name": "",
          "type": "uint256[]"
        }
      ],
      "stateMutability": "view",
      "type": "function"
    },
    {
      "inputs": [
        {
          "internalType": "uint256",
          "name": "accountId",
          "type": "uint256"
        },
        {
          "internalType": "uint256",
          "name": "withdrawId",
          "type": "uint256"
        }
      ],
      "name": "getApprovals",
      "outputs": [
        {
          "internalType": "uint256",
          "name": "",
          "type": "uint256"
        }
      ],
      "stateMutability": "view",
      "type": "function"
    },
    {
      "inputs": [
        {
          "internalType": "uint256",
          "name": "accountId",
          "type": "uint256"
        }
      ],
      "name": "getBalance",
      "outputs": [
        {
          "internalType": "uint256",
          "name": "",
          "type": "uint256"
        }
      ],
      "stateMutability": "view",
      "type": "function"
    },
    {
      "inputs": [
        {
          "internalType": "uint256",
          "name": "accountId",
          "type": "uint256"
        }
      ],
      "name": "getOwners",
      "outputs": [
        {
          "internalType": "address[]",
          "name": "",
          "type": "address[]"
        }
      ],
      "stateMutability": "view",
      "type": "function"
    },
    {
      "inputs": [
        {
          "internalType": "uint256",
          "name": "accountId",
          "type": "uint256"
        },
        {
          "internalType": "uint256",
          "name": "amount",
          "type": "uint256"
        }
      ],
      "name": "requestWithdrawal",
      "outputs": [],
      "stateMutability": "nonpayable",
      "type": "function"
    },
    {
      "inputs": [
        {
          "internalType": "uint256",
          "name": "accountId",
          "type": "uint256"
        },
        {
          "internalType": "uint256",
          "name": "withdrawId",
          "type": "uint256"
        }
      ],
      "name": "withdraw",
      "outputs": [],
      "stateMutability": "nonpayable",
      "type": "function"
    }
  ],
  "bytecode": "0x608060405234801561001057600080fd5b50612050806100206000396000f3fe6080604052600436106100865760003560e01c80638a48ac03116100595780638a48ac0314610157578063ae2ebd7f14610182578063b6b55f25146101ab578063ee4525d5146101c7578063eff634331461020457610086565b80631a0bd42b1461008b5780631e010439146100b4578063441a3e70146100f1578063867275a51461011a575b600080fd5b34801561009757600080fd5b506100b260048036038101906100ad91906114cb565b61022d565b005b3480156100c057600080fd5b506100db60048036038101906100d6919061150b565b6106c3565b6040516100e89190611547565b60405180910390f35b3480156100fd57600080fd5b50610118600480360381019061011391906114cb565b6106e2565b005b34801561012657600080fd5b50610141600480360381019061013c91906114cb565b6109f4565b60405161014e9190611547565b60405180910390f35b34801561016357600080fd5b5061016c610a28565b6040516101799190611620565b60405180910390f35b34801561018e57600080fd5b506101a960048036038101906101a491906114cb565b610abd565b005b6101c560048036038101906101c0919061150b565b610d0e565b005b3480156101d357600080fd5b506101ee60048036038101906101e9919061150b565b610e45565b6040516101fb9190611732565b60405180910390f35b34801561021057600080fd5b5061022b600480360381019061022691906117b9565b610ee8565b005b816000805b600080848152602001908152602001600020600001805490508110156102f2573373ffffffffffffffffffffffffffffffffffffffff1660008085815260200190815260200160002060000182815481106102905761028f611806565b5b9060005260206000200160009054906101000a900473ffffffffffffffffffffffffffffffffffffffff1673ffffffffffffffffffffffffffffffffffffffff16036102df57600191506102f2565b80806102ea90611864565b915050610232565b5080610333576040517f08c379a000000000000000000000000000000000000000000000000000000000815260040161032a9061192f565b60405180910390fd5b8383600080838152602001908152602001600020600201600082815260200190815260200160002060040160009054906101000a900460ff16156103ac576040517f08c379a00000000000000000000000000000000000000000000000000000000081526004016103a39061199b565b60405180910390fd5b3373ffffffffffffffffffffffffffffffffffffffff16600080848152602001908152602001600020600201600083815260200190815260200160002060000160009054906101000a900473ffffffffffffffffffffffffffffffffffffffff1673ffffffffffffffffffffffffffffffffffffffff1603610463576040517f08c379a000000000000000000000000000000000000000000000000000000000815260040161045a90611a07565b60405180910390fd5b600073ffffffffffffffffffffffffffffffffffffffff16600080848152602001908152602001600020600201600083815260200190815260200160002060000160009054906101000a900473ffffffffffffffffffffffffffffffffffffffff1673ffffffffffffffffffffffffffffffffffffffff160361051b576040517f08c379a000000000000000000000000000000000000000000000000000000000815260040161051290611a73565b60405180910390fd5b600080838152602001908152602001600020600201600082815260200190815260200160002060030160003373ffffffffffffffffffffffffffffffffffffffff1673ffffffffffffffffffffffffffffffffffffffff16815260200190815260200160002060009054906101000a900460ff16156105cf576040517f08c379a00000000000000000000000000000000000000000000000000000000081526004016105c690611b05565b60405180910390fd5b60008060008881526020019081526020016000206002016000878152602001908152602001600020905080600201600081548092919061060e90611864565b919050555060018160030160003373ffffffffffffffffffffffffffffffffffffffff1673ffffffffffffffffffffffffffffffffffffffff16815260200190815260200160002060006101000a81548160ff0219169083151502179055506001600080898152602001908152602001600020600001805490506106929190611b25565b8160020154036106ba5760018160040160006101000a81548160ff0219169083151502179055505b50505050505050565b6000806000838152602001908152602001600020600101549050919050565b81813373ffffffffffffffffffffffffffffffffffffffff16600080848152602001908152602001600020600201600083815260200190815260200160002060000160009054906101000a900473ffffffffffffffffffffffffffffffffffffffff1673ffffffffffffffffffffffffffffffffffffffff161461079b576040517f08c379a000000000000000000000000000000000000000000000000000000000815260040161079290611bcb565b60405180910390fd5b60011515600080848152602001908152602001600020600201600083815260200190815260200160002060040160009054906101000a900460ff16151514610818576040517f08c379a000000000000000000000000000000000000000000000000000000000815260040161080f90611c5d565b60405180910390fd5b600080600086815260200190815260200160002060020160008581526020019081526020016000206001015490508060008087815260200190815260200160002060010154101561089e576040517f08c379a000000000000000000000000000000000000000000000000000000000815260040161089590611cc9565b60405180910390fd5b8060008087815260200190815260200160002060010160008282546108c39190611b25565b925050819055506000808681526020019081526020016000206002016000858152602001908152602001600020600080820160006101000a81549073ffffffffffffffffffffffffffffffffffffffff0219169055600182016000905560028201600090556004820160006101000a81549060ff0219169055505060003373ffffffffffffffffffffffffffffffffffffffff168260405161096490611d1a565b60006040518083038185875af1925050503d80600081146109a1576040519150601f19603f3d011682016040523d82523d6000602084013e6109a6565b606091505b50509050806109b457600080fd5b847f56ca301a9219608c91e7bcee90e083c19671d2cdcc96752c7af291cee5f9c8c8426040516109e49190611547565b60405180910390a2505050505050565b6000806000848152602001908152602001600020600201600083815260200190815260200160002060020154905092915050565b6060600160003373ffffffffffffffffffffffffffffffffffffffff1673ffffffffffffffffffffffffffffffffffffffff168152602001908152602001600020805480602002602001604051908101604052809291908181526020018280548015610ab357602002820191906000526020600020905b815481526020019060010190808311610a9f575b5050505050905090565b816000805b60008084815260200190815260200160002060000180549050811015610b82573373ffffffffffffffffffffffffffffffffffffffff166000808581526020019081526020016000206000018281548110610b2057610b1f611806565b5b9060005260206000200160009054906101000a900473ffffffffffffffffffffffffffffffffffffffff1673ffffffffffffffffffffffffffffffffffffffff1603610b6f5760019150610b82565b8080610b7a90611864565b915050610ac2565b5080610bc3576040517f08c379a0000000000000000000000000000000000000000000000000000000008152600401610bba9061192f565b60405180910390fd5b838360008083815260200190815260200160002060010154811115610c1d576040517f08c379a0000000000000000000000000000000000000000000000000000000008152600401610c1490611d7b565b60405180910390fd5b60006003549050600080600089815260200190815260200160002060020160008381526020019081526020016000209050338160000160006101000a81548173ffffffffffffffffffffffffffffffffffffffff021916908373ffffffffffffffffffffffffffffffffffffffff16021790555086816001018190555060036000815480929190610cad90611864565b919050555081883373ffffffffffffffffffffffffffffffffffffffff167f1f0d204a59639d21245dbaa239dfc9a6227aa86cb614bdda19843c52d155fcfa8a42604051610cfc929190611d9b565b60405180910390a45050505050505050565b806000805b60008084815260200190815260200160002060000180549050811015610dd3573373ffffffffffffffffffffffffffffffffffffffff166000808581526020019081526020016000206000018281548110610d7157610d70611806565b5b9060005260206000200160009054906101000a900473ffffffffffffffffffffffffffffffffffffffff1673ffffffffffffffffffffffffffffffffffffffff1603610dc05760019150610dd3565b8080610dcb90611864565b915050610d13565b5080610e14576040517f08c379a0000000000000000000000000000000000000000000000000000000008152600401610e0b9061192f565b60405180910390fd5b346000808581526020019081526020016000206001016000828254610e399190611dc4565b92505081905550505050565b6060600080838152602001908152602001600020600001805480602002602001604051908101604052809291908181526020018280548015610edc57602002820191906000526020600020905b8160009054906101000a900473ffffffffffffffffffffffffffffffffffffffff1673ffffffffffffffffffffffffffffffffffffffff1681526020019060010190808311610e92575b50505050509050919050565b81816004600183839050610efc9190611dc4565b1115610f3d576040517f08c379a0000000000000000000000000000000000000000000000000000000008152600401610f3490611e44565b60405180910390fd5b60005b828290508110156110e0573373ffffffffffffffffffffffffffffffffffffffff16838383818110610f7557610f74611806565b5b9050602002016020810190610f8a9190611e90565b73ffffffffffffffffffffffffffffffffffffffff1603610fe0576040517f08c379a0000000000000000000000000000000000000000000000000000000008152600401610fd790611f09565b60405180910390fd5b6000600182610fef9190611dc4565b90505b838390508110156110cc578383828181106110105761100f611806565b5b90506020020160208101906110259190611e90565b73ffffffffffffffffffffffffffffffffffffffff1684848481811061104e5761104d611806565b5b90506020020160208101906110639190611e90565b73ffffffffffffffffffffffffffffffffffffffff16036110b9576040517f08c379a00000000000000000000000000000000000000000000000000000000081526004016110b090611f09565b60405180910390fd5b80806110c490611864565b915050610ff2565b5080806110d890611864565b915050610f40565b5060006001858590506110f39190611dc4565b67ffffffffffffffff81111561110c5761110b611f29565b5b60405190808252806020026020018201604052801561113a5781602001602082028036833780820191505090505b5090503381868690508151811061115457611153611806565b5b602002602001019073ffffffffffffffffffffffffffffffffffffffff16908173ffffffffffffffffffffffffffffffffffffffff16815250506000600254905060005b82518110156113db57600183516111af9190611b25565b81101561122c578686828181106111c9576111c8611806565b5b90506020020160208101906111de9190611e90565b8382815181106111f1576111f0611806565b5b602002602001019073ffffffffffffffffffffffffffffffffffffffff16908173ffffffffffffffffffffffffffffffffffffffff16815250505b60026001600085848151811061124557611244611806565b5b602002602001015173ffffffffffffffffffffffffffffffffffffffff1673ffffffffffffffffffffffffffffffffffffffff1681526020019081526020016000208054905011156112cc576040517f08c379a00000000000000000000000000000000000000000000000000000000081526004016112c390611fca565b60405180910390fd5b600160008483815181106112e3576112e2611806565b5b602002602001015173ffffffffffffffffffffffffffffffffffffffff1673ffffffffffffffffffffffffffffffffffffffff1681526020019081526020016000208290806001815401808255809150506001900390600052602060002001600090919091909150558260008084815260200190815260200160002060000190805190602001906113759291906113e4565b506002600081548092919061138990611864565b9190505550817f1dfea57c7217d8ee2ef44253419f3a05acdf0e6dea69f12e9e2afa2e748e3c8c84426040516113c0929190611fea565b60405180910390a280806113d390611864565b915050611198565b50505050505050565b82805482825590600052602060002090810192821561145d579160200282015b8281111561145c5782518260006101000a81548173ffffffffffffffffffffffffffffffffffffffff021916908373ffffffffffffffffffffffffffffffffffffffff16021790555091602001919060010190611404565b5b50905061146a919061146e565b5090565b5b8082111561148757600081600090555060010161146f565b5090565b600080fd5b600080fd5b6000819050919050565b6114a881611495565b81146114b357600080fd5b50565b6000813590506114c58161149f565b92915050565b600080604083850312156114e2576114e161148b565b5b60006114f0858286016114b6565b9250506020611501858286016114b6565b9150509250929050565b6000602082840312156115215761152061148b565b5b600061152f848285016114b6565b91505092915050565b61154181611495565b82525050565b600060208201905061155c6000830184611538565b92915050565b600081519050919050565b600082825260208201905092915050565b6000819050602082019050919050565b61159781611495565b82525050565b60006115a9838361158e565b60208301905092915050565b6000602082019050919050565b60006115cd82611562565b6115d7818561156d565b93506115e28361157e565b8060005b838110156116135781516115fa888261159d565b9750611605836115b5565b9250506001810190506115e6565b5085935050505092915050565b6000602082019050818103600083015261163a81846115c2565b905092915050565b600081519050919050565b600082825260208201905092915050565b6000819050602082019050919050565b600073ffffffffffffffffffffffffffffffffffffffff82169050919050565b60006116998261166e565b9050919050565b6116a98161168e565b82525050565b60006116bb83836116a0565b60208301905092915050565b6000602082019050919050565b60006116df82611642565b6116e9818561164d565b93506116f48361165e565b8060005b8381101561172557815161170c88826116af565b9750611717836116c7565b9250506001810190506116f8565b5085935050505092915050565b6000602082019050818103600083015261174c81846116d4565b905092915050565b600080fd5b600080fd5b600080fd5b60008083601f84011261177957611778611754565b5b8235905067ffffffffffffffff81111561179657611795611759565b5b6020830191508360208202830111156117b2576117b161175e565b5b9250929050565b600080602083850312156117d0576117cf61148b565b5b600083013567ffffffffffffffff8111156117ee576117ed611490565b5b6117fa85828601611763565b92509250509250929050565b7f4e487b7100000000000000000000000000000000000000000000000000000000600052603260045260246000fd5b7f4e487b7100000000000000000000000000000000000000000000000000000000600052601160045260246000fd5b600061186f82611495565b91507fffffffffffffffffffffffffffffffffffffffffffffffffffffffffffffffff82036118a1576118a0611835565b5b600182019050919050565b600082825260208201905092915050565b7f796f7520617265206e6f7420746865206f776e6572206f66207468697320616360008201527f636f756e74000000000000000000000000000000000000000000000000000000602082015250565b60006119196025836118ac565b9150611924826118bd565b604082019050919050565b600060208201905081810360008301526119488161190c565b9050919050565b7f74686973207265717565737420697320616c726561647920617070726f766564600082015250565b60006119856020836118ac565b91506119908261194f565b602082019050919050565b600060208201905081810360008301526119b481611978565b9050919050565b7f796f752063616e6e6f7420617070726f76652074686973207265717565737400600082015250565b60006119f1601f836118ac565b91506119fc826119bb565b602082019050919050565b60006020820190508181036000830152611a20816119e4565b9050919050565b7f6163636f756e7420646f6573206e6f7420657869737473000000000000000000600082015250565b6000611a5d6017836118ac565b9150611a6882611a27565b602082019050919050565b60006020820190508181036000830152611a8c81611a50565b9050919050565b7f796f75206861766520616c726561647920617070726f7665642074686973207260008201527f6571756573740000000000000000000000000000000000000000000000000000602082015250565b6000611aef6026836118ac565b9150611afa82611a93565b604082019050919050565b60006020820190508181036000830152611b1e81611ae2565b9050919050565b6000611b3082611495565b9150611b3b83611495565b9250828203905081811115611b5357611b52611835565b5b92915050565b7f796f752063616e6e6f742077697468647261772074686973207769746864726160008201527f7720726571756573740000000000000000000000000000000000000000000000602082015250565b6000611bb56029836118ac565b9150611bc082611b59565b604082019050919050565b60006020820190508181036000830152611be481611ba8565b9050919050565b7f7769746864726177616c206e6f7420617070726f76656420627920616c6c206f60008201527f776e657273000000000000000000000000000000000000000000000000000000602082015250565b6000611c476025836118ac565b9150611c5282611beb565b604082019050919050565b60006020820190508181036000830152611c7681611c3a565b9050919050565b7f696e737566666963656e742062616c616e636500000000000000000000000000600082015250565b6000611cb36013836118ac565b9150611cbe82611c7d565b602082019050919050565b60006020820190508181036000830152611ce281611ca6565b9050919050565b600081905092915050565b50565b6000611d04600083611ce9565b9150611d0f82611cf4565b600082019050919050565b6000611d2582611cf7565b9150819050919050565b7f696e73756666696369656e742066756e64730000000000000000000000000000600082015250565b6000611d656012836118ac565b9150611d7082611d2f565b602082019050919050565b60006020820190508181036000830152611d9481611d58565b9050919050565b6000604082019050611db06000830185611538565b611dbd6020830184611538565b9392505050565b6000611dcf82611495565b9150611dda83611495565b9250828201905080821115611df257611df1611835565b5b92915050565b7f6d6178696d756d206f662034206f776e65727320706572206163636f756e7400600082015250565b6000611e2e601f836118ac565b9150611e3982611df8565b602082019050919050565b60006020820190508181036000830152611e5d81611e21565b9050919050565b611e6d8161168e565b8114611e7857600080fd5b50565b600081359050611e8a81611e64565b92915050565b600060208284031215611ea657611ea561148b565b5b6000611eb484828501611e7b565b91505092915050565b7f6e6f206475706c6963617465206f776e65727300000000000000000000000000600082015250565b6000611ef36013836118ac565b9150611efe82611ebd565b602082019050919050565b60006020820190508181036000830152611f2281611ee6565b9050919050565b7f4e487b7100000000000000000000000000000000000000000000000000000000600052604160045260246000fd5b7f6561636820757365722063616e20686176652061206d6178206f66203320616360008201527f636f756e74730000000000000000000000000000000000000000000000000000602082015250565b6000611fb46026836118ac565b9150611fbf82611f58565b604082019050919050565b60006020820190508181036000830152611fe381611fa7565b9050919050565b6000604082019050818103600083015261200481856116d4565b90506120136020830184611538565b939250505056fea2646970667358221220e34e983c8a055448c4824209294b98be75959ad5267d68a47d1888b784d895d464736f6c63430008120033",
  "linkReferences": {},
  "deployedLinkReferences": {}
}